:100000000C9472000C9491000C9491000C9491004B
:100010000C9491000C9491000C9491000C9491001C
:100020000C9491000C9491000C9491000C9491000C
:100030000C9491000C9491000C9491000C949100FC
:100040000C9491000C9491000C9491000C949100EC
:100050000C9491000C9491000C9491000C949100DC
:100060000C9491000C9456010C9491000C94910006
:100070000C9491000C9491000C9491000C949100BC
:100080000C9491000C9491000C9491000C949100AC
:100090000C9491000C9491000C9491000C9491009C
:1000A0000C9491000C9400030C949B020C9491010D
:1000B0000C9491000C9491000C9491000C9491007C
:1000C0000C9491000C9491000C9491000C942C01D0
:1000D0000C9491000C9491000C9491000C9491005C
:1000E0000C94910011241FBECFEFD1E2DEBFCDBF33
:1000F00015E0A0E0B2E0E0E3F9E200E00BBF02C0EF
:1001000007900D92AE39B107D9F719E0AEE9B5E025
:1001100001C01D92A13EB107E1F70E9488110C9425
:1001200096140C9400009091A2059230E9F093305F
:1001300030F4992351F0913009F051C00FC0933041
:10014000C9F0943009F04BC008958A3A09F047C0CD
:100150001092A3051092A40591E03FC0982F907FC4
:10016000903D19F592E039C0982F907F903EE9F4C8
:1001700093E033C04091A405443019F4853178F1FF
:1001800014C0453060F19091A505992389F4209120
:10019000AA0530E02C5F3F4F642F70E02617370729
:1001A00039F49091A3059817D1F01092A20517C0C9
:1001B0008B3AA9F42091AA0530E02B5F3F4F50E025
:1001C0002417350761F42A553A4FF901808390913D
:1001D000A8059F7090939A0594E09093A205909142
:1001E000A205992391F09091A405983170F4E92F1C
:1001F000F0E0EA55FA4F80839F5F9093A4059091B9
:10020000A305980F9093A30508951092A205089551
:1002100007C083B7816083BF889583B78E7F83BF14
:100220009091CB078091C806891799F3E92FF0E0E8
:10023000E753F94F80819F5F9093CB0790E008953B
:10024000FC0106C09091C00095FFFCCF8093C600D2
:1002500081918823B9F708951F920F920FB60F92DC
:100260000BB60F9211242F933F934F935F936F938D
:100270007F938F939F93AF93BF93EF93FF9380915F
:10028000D6000E949300FF91EF91BF91AF919F9193
:100290008F917F916F915F914F913F912F910F902F
:1002A0000BBE0F900FBE0F901F9018951F920F92CC
:1002B0000FB60F920BB60F9211242F933F934F93CB
:1002C0005F936F937F938F939F93AF93BF93EF93BE
:1002D000FF938091BE05882329F08091C6000E947B
:1002E00093000CC08091BF059091C600E82FF0E00C
:1002F000E054FA4F90838F5F8093BF05FF91EF9199
:10030000BF91AF919F918F917F916F915F914F912D
:100310003F912F910F900BBE0F900FBE0F901F902B
:1003200018951F920F920FB60F920BB60F921124D1
:100330002F933F934F935F936F937F938F939F93ED
:10034000AF93BF93EF93FF938091AA009091AB007E
:10035000855A9E4F9093AB008093AA008091C0066F
:100360009091C106BC016F5F7F4F7093C10660938F
:10037000C00640919A05242F30E0EDE24E9FF00137
:1003800011246E177F0708F466C05091A2055430FF
:1003900079F0809172008B7F809372008091C90008
:1003A000877F8093C9001092C1061092C00653C087
:1003B000442319F46130710519F06E177F0781F439
:1003C0002091C2063091C3062115310529F0909382
:1003D000C1068093C0063FC08091C900886039C0C3
:1003E000C90101962DE230E0829FA001839F500D4C
:1003F000929F500D11246417750788F08091720048
:100400008B7F809372008091C900877F8093C900A1
:100410001092C1061092C0061092A2051CC060FD89
:100420001AC0E095F095E60FF71FF695E7958091D5
:10043000A405E81738F4AE2FB0E0AA55BA4F8C9156
:100440008093CE008091A4058E1728F48091C90076
:10045000877F8093C900FF91EF91BF91AF919F91EA
:100460008F917F916F915F914F913F912F910F905D
:100470000BBE0F900FBE0F901F9018959091C40661
:10048000953000F59F5F9093C406933089F48A3EBF
:1004900031F489E0809398051092A5050895893E6E
:1004A000D1F488E08093980581E08093A5050895B4
:1004B000E92FF0E0ED56FA4F2081821761F4909316
:1004C000C50608952091C5062F5F2093C5062B30E1
:1004D00029F481FF03C01092C40608958B3A01F5F8
:1004E000422F50E08091980590E0069648175907F2
:1004F000B9F41092C1061092C0061092C406809101
:10050000A8009091A90084599E4F9093AB008093CE
:10051000AA00CA9A80917200846080937200089544
:1005200030E08091980590E006968217930714F4C6
:100530001092C40608951F920F920FB60F920BB639
:100540000F9211242F933F934F935F936F937F9359
:100550008F939F93AF93BF93EF93FF93809172001C
:100560008D7F809372008091C606882359F5809113
:10057000C2069091C3062091C70603C00196269536
:1005800020688A309105D0F39093C3068093C20609
:100590002093C7062093D6008091BE05882319F0CA
:1005A0002093C6000AC08091C806E82FF0E0E75308
:1005B000F94F20838F5F8093C8068091C7060E9401
:1005C0003E0207C08091A1008F7B8093A100109212
:1005D000C6061092C3061092C206FF91EF91BF911A
:1005E000AF919F918F917F916F915F914F913F91CB
:1005F0002F910F900BBE0F900FBE0F901F9018956C
:100600001F920F920FB60F9211242F933F934F9387
:100610005F938F939F938091A10090E489278093AB
:10062000A1005091C606552321F58091C2069091F4
:10063000C3060097F1F48091A6009091A7009093D3
:10064000CA078093C907875B9E4F9093A900809348
:10065000A800C99A8091720082608093720081E044
:100660008093C60681E090E09093C3068093C20613
:100670002AC08091A6009091A7002091C9073091CF
:10068000CA079093CA078093C9074196821B930BB0
:100690002091C2063091C3064091C70607C08297D9
:1006A0002F5F3F4F4695552309F4406882329105EC
:1006B000B0F73093C3062093C2064093C70681E08B
:1006C00085278093C6069F918F915F914F913F91AF
:1006D0002F910F900FBE0F901F901895EF92FF92E1
:1006E0000F931F93CF93DF93FC01D701013108F0E3
:1006F0004EC0603108F04BC0403108F048C00023C4
:1007000019F0109709F443C08AEA80838091A1050B
:10071000882311F04A3031F0493029F4882319F444
:100720004AE001C049E04053418360526283238321
:1007300091E0811190E0900F9483CF010596202FD6
:10074000EC0103C03D91399321502223D9F710E0E9
:10075000DC01A00FB11F8091A105882341F011C0D9
:100760008E0F9F1FEC018881280F3F5F04C030E08F
:1007700020E00C5F1F4F832F90E00817190784F7C4
:100780002D938BEA8D93CD018E1B9F0B02C080E0D1
:1007900090E0DF91CF911F910F91FF90EF9008951E
:1007A000EF92FF920F931F93CF93DF938C01DC01A5
:1007B0001C92EE24E39404C00E940801F801808397
:1007C000D8018C918A3AC1F70E940801F80181830F
:1007D000807F803DA9F70E940801D80112968C9372
:1007E000129790E09C01207F3070203E310541F748
:1007F0008F7090708A30910519F41092A10505C090
:100800008930910511F4E092A1050E940801F801D8
:1008100083830E940801D80114968C931497C5E035
:10082000FC2E07C0E801CF0DD11D0E94080188836E
:10083000F3949F2D9550F8018481981798F3809137
:10084000A105882341F01CC0800F911FDC018C9111
:10085000680F7F5F07C060E070E02F2D30E0A901D6
:1008600041505040872F90E0841795076CF3200F7C
:10087000311F21503040F9018081861709F072C084
:10088000E801CF0DD11D0E9408018883F3948B3AB3
:1008900009F096CFD80113968C911397813371F498
:1008A0008091A0058F5F8093A005E9E6F9E0159699
:1008B00088E00D9001928150E1F751C0833409F036
:1008C00047C0F8018581882369F48091F90888235D
:1008D00009F045C087E0E9EFF8E0DF011D928A9555
:1008E000E9F730C082958F7090E00197FC0173E0CA
:1008F000EE0FFF1F7A95E1F7E81BF90BEF58F64F63
:10090000D801159687E00D9001928150E1F7F8012A
:100910002581822F82958F7090E030E02F703070AB
:1009200082179307E1F429EF38E0AC0163E0440F4C
:10093000551F6A95E1F7481B590B61E779E0C9013A
:100940000E94AE1180919F058F5F80939F0507C025
:10095000813629F480919E058F5F80939E058F2DAF
:1009600090E002C08EEF9FEFDF91CF911F910F912A
:10097000FF90EF9008950F931F93CF93DF93C0E004
:10098000D0E00AE010E004C082EE98E00E94D003BC
:100990008091F8089091BF059817B1F3E82FF0E027
:1009A000E054FA4F20818F5F8093F808822F8052A5
:1009B0008F3530F48091C00085FFFCCF2093C600B6
:1009C0002B3189F12C3138F42D3079F1253121F199
:1009D0002830F1F617C02033D8F22A3318F02F3719
:1009E000B9F610C0CE01880F991F43E0CC0FDD1F70
:1009F0004A95E1F78C0F9D1FC22FD0E0E097C80FFA
:100A0000D91FC6CFCE01B8010E948D11EB0180E045
:100A100092E00E942001BCCF84E092E00E9420017D
:100A2000C0E0D0E0B5CFC0E0D0E0CE01DF91CF9103
:100A30001F910F910895AF92BF92CF92DF92EF92E4
:100A4000FF920F931F93CF93DF938C01D62F7A01E0
:100A500086EA95E0D80114964C9150E04A5F5F4FCA
:100A6000B8010E94AE11F80184818A5F8093A405C9
:100A700084E08093A205C8E0C7010E94D003AC01C6
:100A8000D80114968C91149790E0059684179507D9
:100A900034F4C801B7010E94A111009729F0C15098
:100AA00059F78FEF9FEF6EC0DE3F09F469C0C0E0D9
:100AB0000CEC17E058E2C52E52E0D52E65E4A62EC8
:100AC00062E0B62EC7010E94D003863091050CF477
:100AD0004EC0F7018381853691F0863620F4843646
:100AE00009F03FC005C08636D9F18736D1F529C057
:100AF0008CEC97E063E172E00E94B7111DC000D05A
:100B000000D000D0EDB7FEB73196ADB7BEB71296A4
:100B10001C930E931197D382C282D70115968C91A4
:100B2000848315820E94BE11EDB7FEB736960FB6CC
:100B3000F894FEBF0FBEEDBF8CEC97E00E94200141
:100B400010C000D000D000D0EDB7FEB73196ADB7E1
:100B5000BEB712961C930E931197B382A282DDCF7B
:100B6000C0E0D70113968C9113978D1721F0CF5FBA
:100B7000C43108F4A7CFC43119F48EEF9FEF02C03F
:100B800080E090E0DF91CF911F910F91FF90EF9067
:100B9000DF90CF90BF90AF900895EF92FF920F93A8
:100BA0008CEC98E060919A054AE021E000E0EE24A8
:100BB000FF240E946E038CEC98E06EEF42EE58E04A
:100BC0000E941B0582EE98E00E94D00386309105BA
:100BD000CCF38091E5088230A9F70F91FF90EF9058
:100BE00008952F923F924F925F926F927F928F92D1
:100BF0009F92AF92BF92CF92DF92EF92FF920F93AC
:100C00001F93CF93DF9300D000D000D0CDB7DEB7D5
:100C10008CEC98E060919A054AE022E200E0EE2434
:100C2000FF240E946E038CEC98E063E242EE58E0F1
:100C30000E941B0587E592E00E9420018091E70851
:100C40002DB73EB72C5030400FB6F8943EBF0FBEC4
:100C50002DBFEDB7FEB731960CEC17E0ADB7BEB7C0
:100C600012961C930E93119728E632E03383228369
:100C7000982F92959F709483158290E08F7090705A
:100C8000978386833091EA0820E08091EB0890E01A
:100C9000822B932B918780873091E80820E0809108
:100CA000E90890E0822B932B938782870E94BE11E4
:100CB0002DB73EB7245F3F4F0FB6F8943EBF0FBE2F
:100CC0002DBFC8010E9420018091E608873008F4FA
:100CD00041C08091EC08ADB7BEB71C970FB6F89431
:100CE000BEBF0FBEADBFEDB7FEB7319612961C93D7
:100CF0000E9311972BE732E033832283982F92953E
:100D00009F709483158290E08F7090709783868394
:100D10003091EF0820E08091F00890E0822B932B37
:100D2000918780873091ED0820E08091EE0890E077
:100D3000822B932B938782870E94BE112DB73EB7DB
:100D4000245F3F4F0FB6F8943EBF0FBE2DBFC801C2
:100D50000E9420018091E6088C3008F443C0809105
:100D6000F108ADB7BEB71C970FB6F894BEBF0FBE63
:100D7000ADBFEDB7FEB731960CEC17E012961C93A1
:100D80000E93119728E632E033832283982F9295B1
:100D90009F709483158290E08F7090709783868304
:100DA0003091F40820E08091F50890E0822B932B9D
:100DB000918780873091F20820E08091F30890E0DD
:100DC000822B932B938782870E94BE112DB73EB74B
:100DD000245F3F4F0FB6F8943EBF0FBE2DBFC80132
:100DE0000E9420018091E70890E08F70907063E08E
:100DF00070E00E948D116B0121E030E03E832D8375
:100E00000CEC17E0E8E6EE2EE2E0FE2EFBE7AF2E5C
:100E1000F2E0BF2EE3C082EE98E00E94D00385305E
:100E200091050CF4DBC08091E508833209F0D6C04F
:100E30002D813E812F5F3F4F3E832D838091E708B8
:100E4000ADB7BEB71C970FB6F894BEBF0FBEADBF0F
:100E5000EDB7FEB7319612961C930E931197F3825D
:100E6000E282982F92959F709483158290E08F7004
:100E7000907097838683B091EA08BA831982809133
:100E8000EB0890E029813A81822B932B9187808710
:100E90003091E8083C831B828091E90890E0AB81A7
:100EA000BC818A2B9B2B938782870E94BE112DB712
:100EB0003EB7245F3F4F0FB6F8943EBF0FBE2DBF25
:100EC0008CEC97E00E9420018091E608873008F4BE
:100ED00040C08091EC08ADB7BEB71C970FB6F89430
:100EE000BEBF0FBEADBFEDB7FEB7319612961C93D5
:100EF0000E931197B382A282982F92959F7094833C
:100F0000158290E08F709070978386833090EF0801
:100F100022248091F00890E082299329918780878C
:100F20005090ED0844248091EE0890E084299529A2
:100F3000938782870E94BE112DB73EB7245F3F4F33
:100F40000FB6F8943EBF0FBE2DBF8CEC97E00E9409
:100F500020018091E6088C3008F440C08091F108AF
:100F6000ADB7BEB71C970FB6F894BEBF0FBEADBFEE
:100F7000EDB7FEB7319612961C930E931197F3823C
:100F8000E282982F92959F709483158290E08F70E3
:100F90009070978386837090F40866248091F5089A
:100FA00090E086299729918780879090F20888247D
:100FB0008091F30890E088299929938782870E947D
:100FC000BE112DB73EB7245F3F4F0FB6F8943EBF1A
:100FD0000FBE2DBF8CEC97E00E9420012D813E8139
:100FE0002C153D0508F417CF8CEC98E060919A051C
:100FF0004AE029E100E0EE24FF240E946E038CEC1D
:1010000098E060E242EE58E00E941B0500D000D05C
:1010100000D0EDB7FEB731960CEC17E0ADB7BEB718
:1010200012961C930E9311978EE892E0938382831D
:101030008091E708848315820E94BE112DB73EB7C8
:101040002A5F3F4F0FB6F8943EBF0FBE2DBFC801B9
:101050000E9420018091E70880939B0510929C05D7
:1010600026960FB6F894DEBF0FBECDBFDF91CF91AD
:101070001F910F91FF90EF90DF90CF90BF90AF90B6
:101080009F908F907F906F905F904F903F902F90A8
:1010900008958F929F92AF92BF92CF92DF92EF927C
:1010A000FF920F931F93CF93DF938CEC98E06091A6
:1010B0009A054AE026E100E0EE24FF240E946E0338
:1010C0008CEC98E067E142EE58E00E941B058DB77A
:1010D0009EB70A970FB6F8949EBF0FBE8DBFEDB7AF
:1010E000FEB731960CEC17E0ADB7BEB712961C9365
:1010F0000E931197C1ECCC2EC2E0DC2ED382C282BB
:101100008091E70890E08F7390709583848330918D
:10111000EA0820E08091EB0890E0822B932B9783E4
:1011200086833091E80820E08091E90890E0822BE6
:10113000932B918780870E94BE118DB79EB70A9628
:101140000FB6F8949EBF0FBE8DBFC8010E9420014C
:10115000C0E0D0E078011C2D0D2D48C082EE98E053
:101160000E94D003853091050CF440C08091E508C1
:101170008731E1F52196ADB7BEB71A970FB6F8944F
:10118000BEBF0FBEADBFEDB7FEB731961196EC9264
:1011900011971296FC92128303838091E70890E0E6
:1011A0008F739070958384839090EA08882480914F
:1011B000EB0890E08829992997838683B090E80806
:1011C000AA248091E90890E08A299B299187808749
:1011D0000E94BE118DB79EB70A960FB6F8949EBFB7
:1011E0000FBE8DBF8CEC97E00E94200180919B0583
:1011F00090919C05C817D90708F4B0CFDF91CF9123
:101200001F910F91FF90EF90DF90CF90BF90AF9024
:101210009F908F9008956F927F928F929F92AF923E
:10122000BF92CF92DF92EF92FF920F931F93CF93D3
:10123000DF93CDB7DEB769970FB6F894DEBF0FBE68
:10124000CDBF8CEC98E060919A054AE021E100E086
:10125000EE24FF240E946E038CEC98E062E142EEE3
:1012600058E00E941B05DE011196E1E1F3E089E1FF
:1012700001900D928150E1F781EE92E00E942001F1
:1012800000E010E02CECE22E27E0F22E35EFC32E2A
:1012900032E0D32E8091E70890E0002E02C09595B1
:1012A00087950A94E2F780FF0BC0E1E0F0E0EC0FD5
:1012B000FD1FE00FF11F8081992787FD909502C0E7
:1012C0008FE590E000D000D000D0EDB7FEB73196AA
:1012D000ADB7BEB71296FC92EE921197D382C2823E
:1012E000958384830E94BE11EDB7FEB736960FB684
:1012F000F894FEBF0FBEEDBF8CEC97E00E9420017A
:101300000F5F1F4F0830110529F6F9E06F2E712C81
:101310006C0E7D1E730100E010E0ACECCA2EA7E05D
:10132000DA2EB5EFAB2EB2E0BB2E8091E80890E04C
:10133000002E02C0959587950A94E2F780FF06C0BB
:10134000D7018C91992787FD909502C08FE590E099
:1013500000D000D000D0EDB7FEB73196ADB7BEB724
:101360001296DC92CE921197B382A28295838483E7
:101370000E94BE11EDB7FEB736960FB6F894FEBFC9
:101380000FBEEDBF8CEC97E00E9420010F5F1F4F56
:101390000894E11CF11C0830110539F661E1862E34
:1013A000912C8C0E9D1E740100E010E07CECC72E89
:1013B00077E0D72EE5EFAE2EE2E0BE2E8091E90871
:1013C00090E0002E02C0959587950A94E2F780FF81
:1013D00006C0D7018C91992787FD909502C08FE5B3
:1013E00090E000D000D000D0EDB7FEB73196ADB799
:1013F000BEB71296DC92CE921197B382A2829583E9
:1014000084830E94BE11EDB7FEB736960FB6F894EE
:10141000FEBF0FBEEDBF8CEC97E00E9420010F5F76
:101420001F4F0894E11CF11C0830110539F688EFB4
:1014300092E00E94200100E010E04CECE42E47E036
:10144000F42E55EFC52E52E0D52E8091E70890E09E
:10145000002E02C0959587950A94E2F780FD0BC097
:10146000E1E0F0E0EC0FFD1FE00FF11F8081992714
:1014700087FD909502C08FE590E000D000D000D0AD
:10148000EDB7FEB73196ADB7BEB71296FC92EE92AD
:101490001197D382C282958384830E94BE11EDB7D7
:1014A000FEB736960FB6F894FEBF0FBEEDBF8CECBC
:1014B00097E00E9420010F5F1F4F0830110529F6A9
:1014C00000E010E02CECE22E27E0F22E35EFC32EE8
:1014D00032E0D32E8091E80890E0002E02C095956E
:1014E00087950A94E2F780FD06C0D3018C91992775
:1014F00087FD909502C08FE590E000D000D000D02D
:10150000EDB7FEB73196ADB7BEB71296FC92EE922C
:101510001197D382C282958384830E94BE11EDB756
:10152000FEB736960FB6F894FEBF0FBEEDBF8CEC3B
:1015300097E00E9420010F5F1F4F0894611C711CEF
:101540000830110539F600E010E08CECE82E87E059
:10155000F82E95EFC92E92E0D92E8091E90890E0FF
:10156000002E02C0959587950A94E2F780FD06C08B
:10157000D4018C91992787FD909502C08FE590E06A
:1015800000D000D000D0EDB7FEB73196ADB7BEB7F2
:101590001296FC92EE921197D382C2829583848335
:1015A0000E94BE11EDB7FEB736960FB6F894FEBF97
:1015B0000FBEEDBF8CEC97E00E9420010F5F1F4F24
:1015C0000894811C911C0830110539F68EE093E0D7
:1015D0000E94200169960FB6F894DEBF0FBECDBF02
:1015E000DF91CF911F910F91FF90EF90DF90CF90FF
:1015F000BF90AF909F908F907F906F9008954F9283
:101600005F926F927F928F929F92AF92BF92CF9292
:10161000DF92EF92FF920F931F93CF93DF93CDB79B
:10162000DEB729970FB6F894DEBF0FBECDBF0E947C
:10163000CD058AE293E00E9420018CEC98E0609155
:101640009A054AE021E400E0EE24FF240E946E03A4
:101650008CEC98E06EEF42EE58E00E941B056CECBB
:10166000A62E67E0B62E7AE5872E73E0972EE5EF7B
:101670006E2EE2E07E2E8091BF059091F8088917CA
:1016800079F18093F8088CEC98E060919A054AE033
:1016900022E400E0EE24FF240E946E038CEC98E02C
:1016A0006EEF42EE58E00E941B058DE393E00E942E
:1016B000200129960FB6F894DEBF0FBECDBFDF9193
:1016C000CF911F910F91FF90EF90DF90CF90BF903F
:1016D000AF909F908F907F906F905F904F90089504
:1016E00084E593E00E94200100919F0504C082EEF2
:1016F00098E00E94D00380919F050817C1F309EF7D
:1017000018E0CC24DD24A2C0FE013196A4E7B3E0AA
:1017100089E00D9001928150E1F7D8018C91EDB7ED
:10172000FEB73E970FB6F894FEBF0FBEEDBF3196E1
:10173000ADB7BEB71296BC92AE92119793828282D9
:10174000982F92959F709483158290E08F7090707F
:1017500097838683D80111965C9011974424129642
:101760008C91129790E08429952991878087139610
:101770008C9113978287138614968C918487158693
:101780000E94BE11EDB7FEB73E960FB6F894FEBFAD
:101790000FBEEDBF8CEC97E00E942001EE24FF24E9
:1017A000D80115968C91159790E00E2C02C0959556
:1017B00087950A94E2F780FF29C000D000D000D0BE
:1017C000ADB7BEB71196EDB7FEB7B282A182139640
:1017D0007C926E921297E1E0F0E0EC0FFD1FEE0DAF
:1017E000FF1D808114968C93149715961C920E946D
:1017F000BE112DB73EB72A5F3F4F0FB6F8943EBFDC
:101800000FBE2DBF8CEC97E00E9420010894E11CD4
:10181000F11C38E0E316F10419F6D80116968C9104
:10182000169787FF0AC08CEC97E062E773E00E948E
:10183000B7118CEC97E00E9420018EE093E00E94AB
:1018400020010894C11CD11C095F1F4F8091F90829
:1018500090E08F709070C816D9060CF00CCF54CF62
:101860002F923F924F925F926F927F928F929F92B0
:10187000AF92BF92CF92DF92EF92FF920F931F939E
:10188000CF93DF93CDB7DEB7C755D0400FB6F894EE
:10189000DEBF0FBECDBF8DE793E00E94200182EE38
:1018A00098E00E94D00385309105CCF38091E50843
:1018B0008133A9F78AE893E00E94200104C082EEF8
:1018C00098E00E94D0039091F8088091BF05891795
:1018D000B1F3E92FF0E0E054FA4F80819F5F9093DD
:1018E000F808843509F4A2C4853578F4843409F401
:1018F00084C4853420F4813409F0A7C417C0893426
:10190000C1F0833509F0A1C4F0C2893691F08A365E
:1019100030F4813659F0843609F097C46EC48337A9
:1019200009F4E3C2843709F090C480C40E94FF0A1E
:101930008CC48DEC93E00E9420010E94CD058CECBC
:1019400098E060919A054AE021E000E0EE24FF244F
:101950000E946E038CEC98E062E042EE58E00E9438
:101960001B0582EE93E00E942001E7EE6E2EE8E078
:101970007E2E630100E010E0FCECAF2EF7E0BF2EFE
:10198000A5EF8A2EA2E09A2E2BC0D6018D916D0173
:10199000982F90529F3510F490E002C08EE290E0B4
:1019A00000D000D000D0EDB7FEB73196ADB7BEB7CE
:1019B0001296BC92AE921197938282829583848311
:1019C0000E94BE11EDB7FEB736960FB6F894FEBF73
:1019D0000FBEEDBF8CEC97E00E9420010F5F1F4F00
:1019E0008091E60890E001970817190774F28EE0DD
:1019F00093E00E9420018CEC98E060919A054AE007
:101A000023E000E0EE24FF240E946E038CEC98E0BB
:101A100064E042EE58E00E941B058FEE93E00E94C6
:101A2000200137EEC32E38E0D32E00E010E06CEC3E
:101A3000A62E67E0B62E75EF872E72E0972E2BC08C
:101A4000D6018D916D01982F90529F3510F490E042
:101A500002C08EE290E000D000D000D0EDB7FEB71B
:101A60003196ADB7BEB71296BC92AE9211979382E3
:101A70008282958384830E94BE11EDB7FEB73696AD
:101A80000FB6F894FEBF0FBEEDBF8CEC97E00E943E
:101A900020010F5F1F4F8091E60890E00197081723
:101AA000190774F28EE093E00E9420018CEC98E01C
:101AB00060919A054AE022E600E0EE24FF240E94AD
:101AC0006E038CEC98E063E642EE58E00E941B0542
:101AD0004DB75EB7485050400FB6F8945EBF0FBE8A
:101AE0004DBFEDB7FEB731966CECC62E67E0D62E33
:101AF000ADB7BEB71296DC92CE9211978DEF93E000
:101B0000938382838091E708848315828091E8081B
:101B1000868317820E94BE11EDB7FEB738960FB6C6
:101B2000F894FEBF0FBEEDBFC6010E9420010E94C7
:101B30000B090E94F1050E9449088CEC98E0609125
:101B40009A0540E021E00E946E038CEC98E062E090
:101B500042EE58E00E941B0581E194E00E942001C2
:101B600077EEA72E78E0B72E00E010E09C2CCD2C6D
:101B700025EF422E22E0522E2CC0D5018D915D0121
:101B8000982F90529F3510F490E002C08EE290E0C2
:101B900000D000D000D0EDB7FEB73196ADB7BEB7DC
:101BA00011969C9211971296CC9253824282958301
:101BB00084830E94BE11EDB7FEB736960FB6F89437
:101BC000FEBF0FBEEDBF8CEC97E00E9420010F5FBF
:101BD0001F4F8091E60890E00197081719076CF2F3
:101BE0008EE093E00E9420018CEC98E060919A05D1
:101BF00041E021E000E0EE24FF240E946E038CEC23
:101C000098E062E042EE58E00E941B058EE194E00D
:101C10000E942001B7EECB2EB8E0DB2E00E010E0F2
:101C20002CECA22E27E0B22E35EF832E32E0932E3D
:101C30002BC0D6018D916D01982F90529F3510F4D5
:101C400090E002C08EE290E000D000D000D0EDB76E
:101C5000FEB73196ADB7BEB71296BC92AE92119751
:101C600093828282958384830E94BE11EDB7FEB772
:101C700036960FB6F894FEBF0FBEEDBF8CEC97E022
:101C80000E9420010F5F1F4F8091E60890E00197AE
:101C90000817190774F28EE093E00E9420018CEC83
:101CA00098E060919A0542E021E000E0EE24FF24F4
:101CB0000E946E038CEC98E062E042EE58E00E94D5
:101CC0001B058BE294E00E942001E7EECE2EE8E0B7
:101CD000DE2E00E010E0FCECAF2EF7E0BF2EA5EF0B
:101CE0008A2EA2E09A2E2BC0D6018D916D01982FDD
:101CF00090529F3510F490E002C08EE290E000D048
:101D000000D000D0EDB7FEB73196ADB7BEB7129692
:101D1000BC92AE92119793828282958384830E94B3
:101D2000BE11EDB7FEB736960FB6F894FEBF0FBEE4
:101D3000EDBF8CEC97E00E9420010F5F1F4F809158
:101D4000E60890E001970817190774F28EE093E017
:101D50000E9420018CEC98E060919A0542E023E01B
:101D600000E0EE24FF240E946E038CEC98E064E017
:101D700042EE58E00E941B0588E394E00E94200197
:101D800000E010E06CECC62E67E0D62E75EFA72EB3
:101D900072E0B72E2BC0D3018D913D01982F905248
:101DA0009F3510F490E002C08EE290E000D000D0A9
:101DB00000D0EDB7FEB73196ADB7BEB71296DC9244
:101DC000CE921197B382A282958384830E94BE1122
:101DD000EDB7FEB736960FB6F894FEBF0FBEEDBF57
:101DE0008CEC97E00E9420010F5F1F4F8091E60866
:101DF00090E001970817190774F28EE093E00E94B3
:101E000020018CEC98E060919A0542E021E700E027
:101E1000EE24FF240E946E038CEC98E062E742EE11
:101E200058E00E941B054DB75EB7485050400FB6B2
:101E3000F8945EBF0FBE4DBFEDB7FEB731963CECD8
:101E4000C32E37E0D32EADB7BEB71296DC92CE923A
:101E5000119786E494E0938382838091E7088483DA
:101E600015828091E808868317820E94BE11EDB723
:101E7000FEB738960FB6F894FEBF0FBEEDBFC60191
:101E80000E9420018CEC98E060919A0542E023E7E3
:101E90000E946E038CEC98E064E742EE58E00E94EA
:101EA0001B0500D000D000D0EDB7FEB73196ADB71E
:101EB000BEB71296DC92CE92119787E794E0938397
:101EC00082838091E708848315820E94BE11EDB75A
:101ED000FEB736960FB6F894FEBF0FBEEDBFC60133
:101EE0000E9420018DE894E09EC10E94CD050E94D1
:101EF000F1050E94490886EA94E00E942001B6E0BC
:101F00002B2E312C2C0E3D1E1EE2412E512C4C0E40
:101F10005D1E62014101AA24BB240CECE02E07E007
:101F2000F02E28ED622E24E0722E5DC000D000D08D
:101F300000D0EDB7FEB73196ADB7BEB71296FC92A2
:101F4000EE92119773826282B582A4820E94BE11C2
:101F5000EDB7FEB736960FB6F894FEBF0FBEEDBFD5
:101F60008CEC97E00E9420010E94BB048C01D601FA
:101F70008D939D936D018EE093E00E9420010115E9
:101F80001105C9F100D000D000D0EDB7FEB73196F1
:101F9000ADB7BEB71296FC92EE92119746EE54E0A2
:101FA00053834283B582A4820E94BE118DB79EB72F
:101FB00006960FB6F8949EBF0FBE8DBF8CEC97E0CF
:101FC0000E9420010E94BB048C01D4018D939D933B
:101FD0004D018EE093E00E9420010115110559F09A
:101FE0000894A11CB11C80919B0590919C058A15B9
:101FF0009B0508F09BCFA114B10409F426C161012F
:10200000420100E010E0FCECEF2EF7E0FF2EA5EF20
:102010006A2EA4E07A2E0F5F1F4FF40181919191F7
:102020004F01D6012D913D916D01EDB7FEB73A9765
:102030000FB6F894FEBF0FBEEDBF3196ADB7BEB779
:102040001296FC92EE92119773826282158304833A
:1020500097838683318720870E94BE11EDB7FEB734
:102060003A960FB6F894FEBF0FBEEDBF8CEC97E02A
:102070000E9420010A151B0574F286E095E00E947B
:10208000200104C082EE98E00E94D0038091F808FD
:102090009091BF059817B1F3E82FF0E0E054FA4FA4
:1020A00090818F5F8093F808993519F0993709F07E
:1020B000CCC0CC24DD24A5014150504068965FAFD0
:1020C0004EAF68978C2D8068898368968EAD9FADE2
:1020D0006897C816D90619F48C2D806C8983D101B4
:1020E0008C9011967C90E2E0F0E02E0E3F1E7A82FA
:1020F0008B82D2011C9111969C904E0E5F1E9C8289
:102100001D838CEC98E060919A054AE025E105E09A
:102110007E010894E11CF11C0E946E038CEC98E097
:102120006EEF42EE58E00E941B05EDB7FEB73A97FE
:102130000FB6F894FEBF0FBEEDBF31964CEC57E0E2
:10214000ADB7BEB712965C934E9311978AE195E0B6
:1021500093838283D582C482168397828086718618
:102160000E94BE11ADB7BEB71A960FB6F894BEBFA7
:102170000FBEADBF8CEC97E00E9420010894C11CFB
:10218000D11CCA14DB040CF49DCF82EE98E00E94AF
:10219000D00386309105CCF38091E5088132A9F710
:1021A0008091E708882311F100D000D000D0EDB76E
:1021B000FEB731960CEC17E0ADB7BEB712961C9384
:1021C0000E93119721E335E03383228390E001974A
:1021D000958384830E94BE11EDB7FEB736960FB685
:1021E000F894FEBF0FBEEDBFC80102C08BE495E0BE
:1021F0000E9420010E94490828C00E94CD058CEC55
:1022000098E060919A054AE028E100E0EE24FF247E
:102210000E946E038CEC98E06EEF42EE58E00E9454
:102220001B058EE595E00E9420010FC081E08093A0
:10223000BE0507C083B7816083BF889583B78E7F53
:1022400083BF8091BE058823A9F7C95ADF4F0FB617
:10225000F894DEBF0FBECDBFDF91CF911F910F91DC
:10226000FF90EF90DF90CF90BF90AF909F908F90B6
:102270007F906F905F904F903F902F9008951092B5
:10228000A4051092A2051092C4061092CD0092E20D
:102290009093CC00E8ECF0E080818260808386E05F
:1022A0008093CA001092C5009093C400E0ECF0E067
:1022B0002081226020838093C20028E92093C100FE
:1022C0001092D5009093D400E0EDF0E09081926000
:1022D00090838093D2002093D10013BC1092A5006C
:1022E0001092A4001092C3061092C2061092C60665
:1022F00082E88093A10089B3876289BBE2E7F0E0BE
:10230000808180628083789483B7817F83BF0895C2
:102310000E943F110E94300CFDCFAA1BBB1B51E154
:1023200007C0AA1FBB1FA617B70710F0A61BB70B45
:10233000881F991F5A95A9F780959095BC01CD01EA
:102340000895FB01DC0104C08D910190801921F4F6
:1023500041505040C8F7881B990B0895FB01DC01E0
:1023600002C001900D9241505040D8F70895FB01F2
:10237000DC0101900D920020E1F708950F931F9367
:10238000CF93DF93CDB7DEB72E970FB6F894DEBFAD
:102390000FBECDBF0D891E8986E08C831A83098309
:1023A0008FEF9FE79E838D83AE01475E5F4FCE0127
:1023B00001966F89788D0E94ED11EF81F885E00F0D
:1023C000F11F10822E960FB6F894DEBF0FBECDBF60
:1023D000DF91CF911F910F9108952F923F924F92CD
:1023E0005F926F927F928F929F92AF92BF92CF92A5
:1023F000DF92EF92FF920F931F93CF93DF93CDB7AE
:10240000DEB72D970FB6F894DEBF0FBECDBF3C01EF
:102410007D876C875A01FC0117821682838181FFB8
:10242000CAC13FE3C32E2E010894411C511CF30185
:102430009381EC85FD8593FD859193FF8191FD87C7
:10244000EC87882309F4B3C1853241F493FD85916B
:1024500093FF8191FD87EC87853229F490E0B301E9
:102460000E940C14E4CFEE24DD2410E01032B0F40E
:102470008B3269F08C3228F4803251F0833271F45F
:102480000BC08D3239F0803349F411602CC01260DA
:10249000146029C0186027C0106125C017FD2EC028
:1024A000282F20532A3098F416FF08C08E2D880F4D
:1024B000E82EEE0CEE0CE80EE20E15C08D2D880F06
:1024C000D82EDD0CDD0CD80ED20E10620CC08E3270
:1024D00021F416FD6CC1106406C08C3611F410682E
:1024E00002C0883659F4EC85FD8593FD859193FFF4
:1024F0008191FD87EC87882309F0B8CF982F9554F8
:10250000933018F09052933030F424E030E0A20E73
:10251000B31EC9820FC0833631F0833781F0833513
:1025200009F05AC022C0F5018081898322E030E0A1
:10253000A20EB31E21E0E22EF12C420114C092E063
:10254000292E312C2A0C3B1CF5018080918016FF2E
:1025500003C06E2D70E002C06FEF7FEFC4010E94D8
:1025600001147C0151011F7715C082E0282E312C07
:102570002A0C3B1CF5018080918016FF03C06E2D54
:1025800070E002C06FEF7FEFC4010E94F6137C0180
:102590001068510113FD1CC006C080E290E0B30139
:1025A0000E940C14DA948D2D90E0E816F906A8F339
:1025B0000FC0F40117FD859117FF81914F0190E045
:1025C000B3010E940C14D110DA940894E108F108C8
:1025D000E114F10471F7E8C0843611F0893659F539
:1025E000F50117FF07C080819181A281B38124E0AA
:1025F00030E009C060817181CB01AA2797FDA095C9
:10260000BA2F22E030E0A20EB31E012F0F76B7FFE3
:1026100008C0B095A095909581959F4FAF4FBF4F43
:102620000068BC01CD01A2012AE030E00E9438140C
:10263000F82EF4183FC0853721F41F7E2AE030E0E1
:1026400020C0197F8F36A9F0803720F4883509F033
:10265000AEC00BC0803721F0883709F0A8C001C098
:10266000106114FF09C0146007C014FF08C0166091
:1026700006C028E030E005C020E130E002C020E1E3
:1026800032E0F50117FF07C060817181828193817B
:1026900044E050E006C06081718180E090E042E05B
:1026A00050E0A40EB51EA2010E943814F82EF418B2
:1026B000012F0F7706FF09C00E7FFE1430F404FFD0
:1026C00006C002FD04C00F7E02C01F2D01C01E2DDA
:1026D000802F90E004FF0CC0FE01EF0DF11D208162
:1026E000203311F4097E09C002FF06C01E5F05C039
:1026F00086789070009709F01F5F802E992403FD63
:1027000012C000FF0DC0EF2C1D1550F4ED0CE11AA6
:102710001D2D06C080E290E0B3010E940C141F5FE3
:102720001D15C0F304C01D1510F4D11A01C0DD241D
:1027300084FE0FC080E390E0B3010E940C1482FE7F
:102740001FC081FE03C088E590E010C088E790E0DC
:102750000DC0C40186789070009791F081FC02C092
:1027600080E201C08BE207FD8DE290E0B3010E94A0
:102770000C1406C080E390E0B3010E940C14EA94AC
:10278000FE14C0F3FA94F201EF0DF11D808190E088
:10279000B3010E940C14FF20A9F706C080E290E06C
:1027A000B3010E940C14DA94DD20C1F740CEF3018E
:1027B0008681978102C08FEF9FEF2D960FB6F89418
:1027C000DEBF0FBECDBFDF91CF911F910F91FF9064
:1027D000EF90DF90CF90BF90AF909F908F907F90C1
:1027E0006F905F904F903F902F900895FC0105905F
:1027F000615070400110D8F7809590958E0F9F1F03
:102800000895FC016150704001900110D8F7809547
:1028100090958E0F9F1F08950F931F93CF93DF9373
:102820008C01EB018B8181FF1BC082FF0DC02E81CB
:102830003F818C819D812817390764F4E881F981F3
:102840000193F983E88306C0E885F985802F09950F
:10285000009731F48E819F8101969F838E8302C001
:102860000FEF1FEFC801DF91CF911F910F910895D6
:10287000FA01AA27283051F1203181F1E8946F93B1
:102880006E7F6E5F7F4F8F4F9F4FAF4FB1E03ED057
:10289000B4E03CD0670F781F891F9A1FA11D680FF5
:1028A000791F8A1F911DA11D6A0F711D811D911D28
:1028B000A11D20D009F468943F912AE0269F11249D
:1028C0003019305D3193DEF6CF010895462F477001
:1028D000405D4193B3E00FD0C9F7F6CF462F4F705C
:1028E000405D4A3318F0495D31FD4052419302D0BA
:1028F000A9F7EACFB4E0A695979587957795679560
:10290000BA95C9F700976105710508959B01AC015F
:102910000A2E06945795479537952795BA95C9F786
:10292000620F731F841F951FA01D0895F894FFCF99
:10293000082008000D2020202020202020202020FA
:10294000200D00556E737570706F72746564205041
:1029500061636B65740D0A0052657175657374204F
:102960004E6F742050726F636573736564202530F9
:1029700032780D0A0044617461204572726F7220D2
:10298000253032780D0A005377656570536563749E
:10299000696F6E733A0D0A002B25642F256420257C
:1029A0003575202D202535750D0A002B25642F2522
:1029B0006420253575202D3A2535750D0A004D61A9
:1029C000785377656570496E6465783A2025642090
:1029D000282B3120666F72206E756D626572206FD4
:1029E0006620646566696E6974696F6E73290D0A85
:1029F0000053776565704465663A202564204C6F06
:102A0000773A25357520486967683A2535750D0A86
:102A100000557365725365743A2028646566617564
:102A20006C742920002563000D0A55736572536587
:102A3000743A20286368616E6765642920000D0A76
:102A400000313233343536373841624364454647C6
:102A5000484A7555744C202020003D3D3D3D3D4188
:102A60004C455254533D3D3D3D3D0D0A003D3D3DDD
:102A70003D3D454E4420414C455254533D3D3D3D26
:102A80003D0D0A003D3D3D0D0A002532642F2532E3
:102A9000642025357520253364205E762025336437
:102AA000200021004C414B58555E2D760056314D8B
:102AB000656761546F6F6C0D0A00412D616C657222
:102AC00074732C20492D696E666F7363616E2C20C0
:102AD000442D44656661756C7453776565702C2070
:102AE000532D5365745377656570732E20542D7480
:102AF00072616E73706172656E740D0A003D3D3DCA
:102B00003D3D494E464F5343414E3D3D3D3D3D0DBC
:102B10000A0056312056657273696F6E3A2000566E
:102B2000312053657269616C4E6F3A2000426174C6
:102B300074566F6C743A2025642E253032640D0A69
:102B40000043442056657273696F6E3A200052410B
:102B50002056657273696F6E3A2000535620566591
:102B60007273696F6E3A2000535620536572696123
:102B70006C4E6F3A20005361767679537461743AE3
:102B8000205468726573684B50483A256420287554
:102B90006E6D7520656E613A207468726F7672642E
:102BA000293A25640D0A0053617676795665685393
:102BB00070643A202564206B70680D0A003D3D3D2D
:102BC0003D3D454E4420494E464F5343414E3D3DC9
:102BD0003D3D3D0D0A00456E746572204465666991
:102BE0006E6974696F6E2052616E6765732C206C1C
:102BF0006F7720616E6420686967682C20302074CC
:102C00006F20656E640D0A00446566202564204CC3
:102C10006F773A0D0A00446566202564204869678D
:102C2000683A0D0A002532643A20253575202D209A
:102C30002535750D0A00577269746520746F20562A
:102C4000313F2028592F4E293A0057726F74652062
:102C50002532643A20253575202D202535750D0A3D
:102C6000005772697465204572726F7220696E2018
:102C7000696E6465782025640D0A00577269746571
:102C800020537563636573736675700D0A00446540
:102C90006661756C742053776565707320446F6E40
:102CA000652C20506C656173652075736520696EB5
:102CB000666F7363616E20746F20636F6E666972F6
:0E2CC0006D0D0A00AAD8EA31090004050000D3
:00000001FF
